S0120000537472617762657272792E73726563DD
S214400000882C4520719940006D9940000D7E400037
S214400010D17C4000357D4000A57D400000000000BA
S214400020000000000000000000000000BD7A400014
S2144000306D99400000000000517A4000398640002B
S2144000406D9940006D9940006D9940006D99400053
S2144000506D9940006D9940006D9940006D99400043
S2144000606D99400000000000310240006D9940004C
S2144000706D994000717B4000312140006D994000F1
S2144000806D9940006D9940006D9940006D99400013
S2144000906D9940006D9940006D9940007D0D40007F
S2144000A0191940006D9940006D9940006D994000C7
S2144000B06D9940006D9940006D9940006D994000E3
S2144000C06D9940006D994000C99A40006D99400076
S2144000D06D9940006D9940006D9940006D994000C3
S2144000E06D9940006D9940006D9940006D994000B3
S2144000F06D9940006D9940006D9940006D994000A3
S2144001006D9940006D9940006D9940006D99400092
S2144001106D99400000000000000000000000000054
S2144001206D9940006D9940007D2640006D994000D5
S2144001306D9940006D9940006D9940006D99400062
S2144001406D9940006D9940006D9940006D99400052
S2144001506D9940006D9940006D9940006D99400042
S2144001606D9940006D99400010B5054C237833B921
S214400170044B13B10448AFF300800123237010BD35
S214400180200540200000000018BD40000C4B43B145
S2144001900C480D4910B5AFF300800C48036823B9EE
S2144001A010BD0A48036833B97047094B002BF7D097
S2144001B0BDE810401847064B002BF5D0184700BF47
S2144001C00000000018BD40002405402018BD400037
S2144001D00000000010B50E4C0A200E4B9847042233
S2144001E020460B210C4B984720460B210B4B98473B
S2144001F020460B210A4B984720460A4A0B210A4BB9
S2144002009847204601220B21084BBDE8104018476E
S214400210000E0E40052440001D2A4000C12A400022
S214400220B92B4000000020413D2B4000E12B400010
S2144002300148024B184700BF000E0E40392B4000C5
S2144002400C4C08210B4804220B4B0C4D0C4E80B531
S2144002509847082120460B4B0B4F984708212046CD
S214400260B8470A20A84720460821B0474FF4F57003
S214400270A847F3E700120E401D2A4000358940008B
S214400280E92A4000992A4000112B400008B504484E
S214400290044B984780F48030C0F3004008BD00BF50
S2144002A000120E40392B40002DE9F041174D122028
S2144002B0174F184CB847284603221921164EA04718
S2144002C0284602221C21A047284602221E21A0477B
S2144002D0284602221F21A047284602221A21A0476C
S2144002E0284602221B21A0470C20B847304604224D
S2144002F01021A04730461021084B98473046084A00
S2144003001021084BBDE8F041184700BF000E0E40D4
S214400310052440001D2A400000120E40C12A40001D
S2144003200000A0403D2B4000094B002209481B68B6
S21440033010B5446883F80224A3F800243CB1064B69
S214400340984720460549064BBDE81040184710BD63
S2144003503C054020EC2740200182400048284020B1
S214400360B17F4000002215212848F0B5284D87B0BF
S2144003701446A847032204212648A847264F0E20A5
S214400380264DB84728222346284600922146042276
S214400390234EB047234B284601219847A5F5E03524
S2144003A00621214E0E20B0471720B84728461F4B3F
S2144003B0012798470323284622460593214623468D
S2144003C00494039402948DE89000194FB847214650
S2144003D028464EF2E342174B9847284621461022BD
S2144003E0154B984706211720B047144B191D03F2AA
S2144003F00C4283F80E48196083F80644C3F8082474
S214400400A3F80C48A3F8044407B0F0BD000E0E4015
S2144004101D2A400000100E40052440000080024087
S214400420893440003135400045314000AD3340000E
S2144004302D344000D5334000053440003C05402074
S2144004400146014B014818475535400000800240A0
S214400450F0B5052389B04FF001222C4F0026054603
S2144004600C46DFF8C4E0184603918DF81030284952
S214400470284BCDF81170CDF81560CDF819200195B0
S214400480CDF808E0984704F12003BFF34F8FB342FE
S21440049008DD25F020052049203BC1F8685220356C
S2144004A0002BF9DCBFF34F8FBFF36F8F1A4C00233E
S2144004B0C4F88430BFF34F8FD4F8803043F6E07EE4
S2144004C0C3F3C906C3F34E33B7075D0105EA0E0012
S2144004D03946324641EA0003013A01F14041C4F848
S2144004E06C32531CF6D1203D15F1200FEED1BFF3F0
S2144004F04F8FBFF36F8F094B012401A908481A6834
S214400500084B82F80244984709B0F0BD0900010143
S214400510290340007126400000ED00E03C054020E5
S214400520008007400D2540001C8002400FB42DE996
S214400530F04F85B09D4A30240EAB53F8041B009311
S2144005400B783BB1252B56D0013102F8013B0B7896
S214400550002BF7D1954C964EA4F50167954D137038
S21440056014F8018BB8F1000F38D0D7F80834B3F838
S214400570002492B203F80280B3F80024013292B20B
S214400580A3F80024B3F800349BB2B3F5806FE7D1EC
S21440059000213046A8473B6893F802246AB1DFF84A
S2144005A024A2DFF82492DFF824824046D047C8478A
S2144005B03B6893F80224002AF7D1D7F80824DFF8DE
S2144005C01082B2F8001410463A6089B2C7F8083470
S2144005D0C04714F8018BB8F1000FC6D141467448A5
S2144005E0754B984741467248744B984705B0BDE8EE
S2144005F0F04F04B070474878A0F16303122B00F226
S2144006009D80DFE803F093249B9B9B9B9B9B9B9B3F
S2144006109B9B9B9B9B9B169B0A00009B181D1B68E5
S2144006200090002B40F08E80012314701A44023153
S21440063086E7009D28680435037800952BB102F8BC
S214400640013B10F8013F002BF9D1023178E7009BBF
S214400650181D1B68002B0090C0F2BC80E4D0584D9B
S21440066001AE05F1280755F8040B8342C0F02481FB
S2144006701B1A984200F226811B1A984200F22481E7
S2144006801B1A984200F222811B1A984200F22081DF
S2144006901B1A984200F21E811B1A984200F21C81D7
S2144006A01B1A984200F21A811B1A984200F21881CF
S2144006B01B1A984200F216811B1A3A20AF4206F8DF
S2144006C0010BD0D19DF80430302B40F01F819DF8AF
S2144006D00530302B40F078819DF80630302B40F0C6
S2144006E082819DF80730302B40F09B819DF8083082
S2144006F0302B40F087819DF80930302B40F0BE818A
S2144007009DF80A30302B40F0AA819DF80B30302BF4
S21440071040F096819DF80C00302840F0BE819DF850
S2144007200D30302B40F0BF8100237FE7009B023125
S214400730181D1B68009002F8013B01E7023102F8E1
S214400740010BFDE61E4D01AE05F1280755F8040BDA
S2144007508342C0F0A1801B1A984200F29F801B1A69
S214400760984200F29D801B1A984200F29B801B1A0A
S214400770984200F299801B1A984200F297801B1A02
S214400780984200F295801B1A984200F293801B1AFA
S214400790984200F293801B1A984200F291801B1AEE
S2144007A03A20AF4206F8010BD0D18BE74C0D4020E3
S2144007B000C000405D334000353340008533400084
S2144007C044AD40002187400089834000EC2740200C
S2144007D051044000BA4D2D205B4201AE05F128077A
S2144007E0107055F8040B98427ED81B1A98427FD852
S2144007F01B1A98427AD81B1A98427FD81B1A9842DE
S2144008007AD81B1A984275D81B1A984278D81B1A61
S214400810984277D81B1A984200F2D4801B1A984206
S21440082072D81B1A3A20BD4206F8010BD9D19DF862
S2144008300430302B40F0FC819DF80530302B40F0E2
S214400840E8819DF80630302B40F0D4819DF8073083
S214400850302B40F0C0819DF80830302B40F0AC8102
S2144008609DF80930302B40F098819DF80A30302BA7
S21440087040F084819DF80B30302B40F023819DF86A
S2144008800C00302840F015819DF80D30302B40F09C
S2144008900D8100230132C9E6302082E7312080E70F
S2144008A032207EE733207CE734207AE7352078E72D
S2144008B0362076E7372074E73020FFE6382070E7AA
S2144008C039206EE73120F9E63220F7E63320F5E6A8
S2144008D03420F3E63520F1E63620EFE63720EDE625
S2144008E03820EBE63920E9E630209CE732209AE7CC
S2144008F0312098E7352096E7342094E7332092E776
S214400900362090E737208EE739208CE74FF0080CEA
S2144009104FF0070E06270526042503204FF0020851
S2144009204FF001094FF0000A0DF1100B13700A2822
S214400930D944D84419F80C9C18F80C3C82F801901D
S214400940937031D004AB092D184410F80C3CD3708A
S21440095036DC04AB092E1D4415F80C3C13712DDC17
S21440096004AB092F1E4416F80C3C537124DC04AB30
S214400970BEF1090F1F4417F80C3C93711ADC04AB08
S214400980BCF1090F9E441EF80C3CD37110DC04AB3E
S2144009909C441CF80C3C1372BAF1000F06D19DF82B
S2144009A00D000A23507241E603233FE609233DE645
S2144009B008233BE6072339E6062337E6052335E6D4
S2144009C0042333E638202EE74FF0090C4FF0080E8C
S2144009D007270626052504204FF003084FF0020996
S2144009E04FF0010AA0E74FF00A0C4FF0090E082717
S2144009F00726062505204FF004084FF003094FF060
S214400A00020A91E74FF00C0C4FF00B0E0A2709260E
S214400A10082507204FF006084FF005094FF0040A56
S214400A2082E74FF00B0C4FF00A0E092708260725E1
S214400A3006204FF005084FF004094FF0030A73E70D
S214400A404FF00F0C4FF00E0E0D270C260B250A20EC
S214400A504FF009084FF008094FF0070A64E74FF0D7
S214400A600E0C4FF00D0E0C270B260A2509204FF0D2
S214400A7008084FF007094FF0060A55E74FF00D0CEF
S214400A804FF00C0E0B270A26092508204FF00708C2
S214400A904FF006094FF0050A46E79DF80D50022331
S214400AA010705570C2E513700123BFE553700123E3
S214400AB0F0E69DF80D50022350709570EAE600BFB0
S214400AC044AD40000F254FF00E0E0D270C264FF07C
S214400AD00B0C0A204FF009084FF008094FF0070AA0
S214400AE00DF1100B53700A28D944D84419F80C9CC1
S214400AF018F80C3C82F80290D37031D004ABBCF1AD
S214400B00090F184410F80C3C137135DC04AB092E61
S214400B109C441CF80C3C53712CDC04AB092F1E443F
S214400B2016F80C3C937123DC04ABBEF1090F1F444E
S214400B3017F80C3CD37119DC04AB092D9E441EF803
S214400B400C3C137210DC04AB1D4415F80C3C53727D
S214400B50BAF1000F06D19DF80D000A23907299E66F
S214400B60032397E6092395E6082393E6072391E6B1
S214400B7006238FE605238DE604238BE60E254FF0ED
S214400B800D0E0C270B264FF00A0C09204FF00808D4
S214400B904FF007094FF0060AA2E70D254FF00C0E5E
S214400BA00B270A264FF0090C08204FF007084FF095
S214400BB006094FF0050A93E70C254FF00B0E0A275F
S214400BC009264FF0080C07204FF006084FF005099D
S214400BD04FF0040A84E70B254FF00A0E0927082633
S214400BE04FF0070C06204FF005084FF004094FF071
S214400BF0030A75E70A254FF0090E082707264FF027
S214400C00060C05204FF004084FF003094FF0020A87
S214400C1066E709254FF0080E072706264FF0050C15
S214400C2004204FF003084FF002094FF0010A57E73F
S214400C3008254FF0070E062705264FF0040C032024
S214400C404FF002084FF001094FF0000A48E700BF96
S214400C502DE9F0474FF01F090024124E0127124D90
S214400C608846124B01461248984707FA09F3312145
S214400C70284613EA080F01D1302128460134B047F0
S214400C8009F1FF39E4B2202C05D06307EDD12021CD
S214400C902846B047E9E733460A210348BDE8F0470F
S214400CA0184700BF55354000008002402D054000E3
S214400CB074AD40002DE9F04F81B0002941D0044684
S214400CC04718DFF8AC80DFF89CA0DFF8A89001E07A
S214400CD0BC4236D0D8F8083414F8010BB3F80014E8
S214400CE089B25854B3F80014013189B2A3F80014FD
S214400CF0B3F800349BB2B3F5806FE9D1002150467B
S214400D00C847D8F8003093F8021461B1DFF868B0ED
S214400D10114E124D2846D847B047D8F8003093F8C1
S214400D2002140029F6D1D8F80854C8F80834B5F8A3
S214400D30001428460A4B89B2C8F800509847BC426F
S214400D40C8D100210748084B984700210548074B63
S214400D5001B0BDE8F04F184789834000EC2740209B
S214400D605104400000C00040353340008533400009
S214400D703C0540205D334000218740002DE9F0418E
S214400D800021124B1248134C9847134B0021104831
S214400D909847236893F8022452B1104F104E114DD5
S214400DA02846B847B047236893F80224002AF7D16C
S214400DB0D4F808240C4DB2F800141046C4F8083491
S214400DC02B46226089B2BDE8F0411847FD3340000B
S214400DD000C000403C0540205D3340002187400075
S214400DE089834000EC27402051044000034B0022FA
S214400DF01B6883F80224A3F8002470474C0F402059
S214400E002DE9F0412B4D86B02B4C0222284601217D
S214400E10A047284602220021A047DFF8BC800D20CC
S214400E20A5F53D25C0470023282104222846234E09
S214400E30009119461C46B047214B28460121A5F58E
S214400E40C03598471F4F01210D20B8471820C0478E
S214400E5028461D4B012698470323284622460593DD
S214400E6031462346049403940294DFF870808DE85C
S214400E705000C047314628464EF2E342134B98474F
S214400E80314628461022124B984706211820B8476C
S214400E90104B191D03F20C4283F80E48196083F874
S214400EA00644C3F80824A3F80C48A3F8044406B044
S214400EB0BDE8F08100100E401D2A400089344000F5
S214400EC03135400045314000AD334000D533400019
S214400ED0053440004C0F4020052440002D3440008F
S214400EE0F0B5062389B04FF001222C4F0026054668
S214400EF00C46DFF8C4E0184603918DF810302849B8
S214400F00284BCDF81170CDF81560CDF81920019515
S214400F10CDF808E0984704F12003BFF34F8FB34263
S214400F2008DD25F020052049203BC1F868522035D1
S214400F30002BF9DCBFF34F8FBFF36F8F1A4C0023A3
S214400F40C4F88430BFF34F8FD4F8803043F6E07E49
S214400F50C3F3C906C3F34E33B7075D0105EA0E0077
S214400F603946324641EA0003013A01F14041C4F8AD
S214400F706C32531CF6D1203D15F1200FEED1BFF355
S214400F804F8FBFF36F8F094B012401A908481A6899
S214400F90084B82F80244984709B0F0BD07000101AB
S214400FA0ED0D40007126400000ED00E04C0F402063
S214400FB0008007400D2540001C4002400FB42DE93C
S214400FC0F04F85B09F4A30240EAB53F8041B009375
S214400FD00B783BB1252B45D0013102F8013B0B780D
S214400FE0002BF7D1974E984DA6F50167974C137096
S214400FF016F8011B49B3D7F80834B3F8002492B268
S2144010009954B3F80024013292B2A3F80024B3F8FE
S21440101000349BB2B3F5806FEAD101212846A04741
S2144010203A6892F80234002BFBD1D7F80834DFF840
S2144010302C82B3F8001418463B6089B2C7F80824DF
S214401040C04716F8011B0029D5D101217E48804BA8
S214401050984701217C487F4B984705B0BDE8F04F44
S21440106004B070474878A0F16303122B00F2E68084
S214401070DFE803F0DC24E4E4E4E4E4E4E4E4E4E489
S214401080E4E4E4E416E40A00009B181D1B680090A4
S214401090002B40F0E580012314701A44023197E794
S2144010A0009D28680435037800952BB102F8013B73
S2144010B010F8013F002BF9D1023189E7009B181D3B
S2144010C01B68002B0090C0F23281E4D0624D01AE26
S2144010D005F1280755F8040B8342C0F0A3811B1A7C
S2144010E0984200F2A5811B1A984200F2A3811B1A6F
S2144010F0984200F2A1811B1A984200F29F811B1A67
S214401100984200F29D811B1A984200F29B811B1A5E
S214401110984200F299811B1A984200F297811B1A56
S214401120984200F295811B1A3A20AF4206F8010B0E
S214401130D0D19DF80430302B40F03D829DF80530EC
S214401140302B40F0A3829DF80630302B40F08F8243
S2144011509DF80730302B40F07B829DF80830302BCE
S21440116040F067829DF80930302B40F0AD829DF804
S2144011700A30302B40F099829DF80B30302B00F02F
S214401180CA804FF00F0E0E270D260C254FF00B0C85
S2144011900A204FF009084FF008094FF0070A0DF1F2
S2144011A0100B13700A28D944D84419F80C9C18F828
S2144011B00C3C82F80190937000F0528104ABBCF175
S2144011C0090F184410F80C3CD37000F3478104AB69
S2144011D0092D9C441CF80C3C137100F33D8104AB74
S2144011E0092E1D4415F80C3C537100F3338104ABB3
S2144011F0092F1E4416F80C3C937100F3818104AB12
S214401200BEF1090F1F4417F80C3CD37100F37681EA
S21440121004AB9E441EF80C3C1372BAF1000F40F02B
S2144012206B819DF80D000A23507236E7009B023111
S214401230181D1B68009002F8013BC9E6023102F80F
S214401240010BC5E65C17402000C000405D334000FF
S21440125035334000853340007CAD4000E10E400011
S214401260DC4D01AE05F1280755F8040B8342C0F06B
S214401270C9801B1A984200F2C7801B1A984200F297
S214401280C5801B1A984200F2C3801B1A984200F28F
S214401290C1801B1A984200F2BF801B1A984200F287
S2144012A0BD801B1A984200F2BB801B1A984200F27F
S2144012B0BB801B1A984200F2B9801B1A3A20AF42F4
S2144012C006F8010BD0D19DF80430302B40F0CA8090
S2144012D09DF80530302B40F032819DF80630302B9B
S2144012E040F03C819DF80730302B40F055819DF80A
S2144012F00830302B40F041819DF80930302B40F0CB
S21440130089819DF80A30302B40F075819DF80B306E
S214401310302B40F061819DF80C00302840F006816B
S2144013209DF80D30302B40F007810023B5E6A94DDF
S2144013302D205B4201AE05F12807107055F8040BCE
S214401340984200F2DF801B1A984200F2DF801B1A98
S214401350984200F2D9801B1A984200F2DD801B1A90
S214401360984200F2D7801B1A984200F2D1801B1A8E
S214401370984200F2D3801B1A984200F2D1801B1A82
S214401380984200F2CF801B1A984200F2CD801B1A7A
S2144013903A20BD4206F8010BD0D19DF80430302BE0
S2144013A040F060829DF80530302B40F04C829DF82E
S2144013B00630302B40F038829DF80730302B40F016
S2144013C024829DF80830302B40F010829DF809307A
S2144013D0302B40F0FC819DF80A30302B40F0E881FD
S2144013E09DF80B30302B40F087819DF80C0030285C
S2144013F040F07C819DF80D30302B40F07481002306
S21440140001324AE630205AE7312058E7322056E784
S214401410332054E7342052E7352050E736204EE755
S21440142037204CE7302080E6382048E7392046E72A
S21440143031207AE6322078E6332076E6342074E6A9
S214401440352072E6362070E637206EE638206CE6A9
S21440145039206AE6062320E605231EE604231CE61A
S21440146003231AE64FF0080C0727062605254FF0FB
S214401470040E03204FF002084FF001094FF0000A17
S2144014800DF1100B13700A28D944D84419F80C9C57
S21440149018F80C3C82F801909370E1D004ABBEF192
S2144014A0090F184410F80C3CD370D7DC04AB092D58
S2144014B09E441EF80C3C1371CEDC04AB092E1D4432
S2144014C015F80C3C5371C5DC04AB092F1E4416F8C6
S2144014D00C3C937114DC04ABBCF1090F1F4417F8A5
S2144014E00C3CD3710ADC04AB9C441CF80C3C1372D5
S2144014F0BAF1000F3FF495AE0923CEE50823CCE5BC
S2144015000723CAE5302044E7322042E7312040E74F
S21440151035203EE734203CE733203AE7362038E7AC
S214401520372036E7382034E7392032E79DF80D502B
S214401530022310705570B0E513700123ADE54FF0EF
S214401540090C0827072606254FF0050E04204FF005
S21440155003084FF002094FF0010A91E74FF00A0CDA
S2144015600927082607254FF0060E05204FF00408E9
S2144015704FF003094FF0020A82E74FF00C0C0B279E
S2144015800A2609254FF0080E07204FF006084FF0B0
S21440159005094FF0040A73E74FF00B0C0A2709269B
S2144015A008254FF0070E06204FF005084FF00409B7
S2144015B04FF0030A64E74FF0080E07270626052576
S2144015C04FF0040C03204FF002084FF001094FF093
S2144015D0000AE4E57CAD40004FF00F0C0E270D26C8
S2144015E00C254FF00B0E0A204FF009084FF0080963
S2144015F04FF0070A44E74FF00E0C0D270C260B253C
S2144016004FF00A0E09204FF008084FF007094FF038
S214401610060A35E74FF00D0C0C270B260A254FF02F
S214401620090E08204FF007084FF006094FF0050A4C
S21440163026E74FF00C0E0B270A2609254FF0080C1C
S21440164007204FF006084FF005094FF0040AA6E5BC
S2144016504FF00B0E0A27092608254FF0070C0620E8
S2144016604FF005084FF004094FF0030A97E54FF096
S2144016700A0E0927082607254FF0060C05204FF0CE
S21440168004084FF003094FF0020A88E54FF0090EB0
S2144016900827072606254FF0050C04204FF00308C0
S2144016A04FF002094FF0010A79E54FF00E0E0D2774
S2144016B00C260B254FF00A0C09204FF008084FF077
S2144016C007094FF0060A6AE54FF00D0E0C270B2669
S2144016D00A254FF0090C08204FF007084FF006097E
S2144016E04FF0050A5BE55370012389E69DF80D50DF
S2144016F002235070957083E64FF00F0E0E270D258F
S2144017000C264FF00B0C0A204FF008094FF0090842
S2144017104FF0070A0DF1100B53700A28D944D844ED
S21440172019F80C9C18F80C3C82F80290D37031D013
S21440173004ABBCF1090F184410F80C3C137135DCAF
S21440174004AB092E9C441CF80C3C53712CDC04ABB7
S214401750092D1E4416F80C3C937123DC04AB092F6C
S2144017601D4415F80C3CD3711ADC04ABBEF1090FCE
S2144017701F4417F80C3C137210DC04AB9E441EF852
S2144017800C3C5372BAF1000F06D19DF80D000A23A7
S214401790907235E6032333E6092331E608232FE625
S2144017A007232DE606232BE6052329E6042327E612
S2144017B04FF00E0E0D270C250B264FF00A0C092075
S2144017C04FF007094FF008084FF0060AA2E74FF01F
S2144017D00D0E0C270B250A264FF0090C08204FF05B
S2144017E006094FF007084FF0050A93E74FF00C0E36
S2144017F00B270A2509264FF0080C07204FF005094D
S2144018004FF006084FF0040A84E74FF00B0E0A2705
S214401810092508264FF0070C06204FF004094FF024
S21440182005084FF0030A75E74FF00A0E092708250A
S21440183007264FF0060C05204FF003094FF004082A
S2144018404FF0020A66E74FF0090E082707250626DE
S2144018504FF0050C04204FF002094FF003084FF0FC
S214401860010A57E74FF0080E0727062505264FF0D2
S214401870040C03204FF001094FF002084FF0000A15
S21440188048E700BF70B51C4C0A461C4B01461C4836
S2144018909847D4F808342521B3F8002492B29954D6
S2144018A0B3F80024013292B2A3F80024B3F800340F
S2144018B09BB2B3F5806F09D001211248124B98476E
S2144018C001211048114BBDE87040184701210D48D2
S2144018D00F4B9847226892F80234002BFBD1D4F87D
S2144018E008340C4DB3F800141846236089B2C4F887
S2144018F00824A847E0E700BF4C0F4020BD0F40003B
S214401900A4AD400000C00040353340008533400061
S2144019105D334000E10E400070B501210D4B0E488E
S2144019200E4C984701210C480D4B9847226892F878
S2144019300234002BFBD1D4F808340A4DB3F8001417
S214401940184623602B46C4F8082489B2BDE8704088
S214401950184700BFFD33400000C000404C0F4020F9
S2144019605D334000E10E400070B54FF4FA7282B02D
S214401970064D2F260092022300220549054C0648B4
S2144019802E80A047054B186002B070BD5C18402002
S2144019901D20400085894000ACAD400070274020A7
S2144019A02DE9F04F2D4983B02D482E4B98470746DA
S2144019B018B1384603B0BDE8F08F2B4D20262B4893
S2144019C02B4CA846DFF8C890DFF8C8A0DFF8C8B0B0
S2144019D0A04729E0B1F57A7FAAFB012325484FF0BE
S2144019E0010194BF23489909A047A988E8884B0A73
S2144019F0C1F30312C0F3451EC00A03F2BC7301F0E4
S214401A001F018DE801401C48A0472B7A102B1BD0A5
S214401A10013E1A48A0471A48B6B2A0471348A04706
S214401A20002EC6D0AB7D93B141460D48C847154BF6
S214401A3007460028BDD129689942CBD9ABFB013176
S214401A401148890CA047D0E71048A047E0E7074870
S214401A50A047384603B0BDE8F08F00BF5C18402072
S214401A60F42340200D6E400058264020CCB4400061
S214401A702D054000BCAD4000C4AD4000DCAD40008C
S214401A806E26402040420F00B4AD4000D4AD40002A
S214401A9019724000D34D621083DE1B431249134B2C
S214401AA070B5134CADF50A7D054601F57A7098473A
S214401AB0214606460F4B1048984788B929460F4B93
S214401AC00D489847684612220B490D4B98470446E6
S214401AD010B968460B4B984720460DF50A7D70BDF9
S214401AE023883380EAE700BF5C184020F1A5400019
S214401AF0E0AD4000A9A64000441C40204DA6400052
S214401B00D9664000BD6C400027490022274BF0B5FF
S214401B10274CADF50D7D054601F57A700192984744
S214401B2021460646234B2448984700282ED129466E
S214401B30224B2148984702A801221F49204B98472C
S214401B40044618B120460DF50D7DF0BD4FF480617A
S214401B5002201C4B98471C4E05461C4F06E0019938
S214401B602846B847019BB3F5806F12D101AB4FF4BE
S214401B708062294602A8B04704460028EFD028468F
S214401B80134B984720460DF50D7DF0BD23883380D6
S214401B90CDE728460E4B984702A80E4B984704467A
S214401BA020460DF50D7DF0BD5C184020F1A54000A7
S214401BB0E0AD4000A9A64000441C40204DA6400091
S214401BC0D9664000818C400029694000B50C400031
S214401BD06D8D4000BD6C400041490022414B2DE9CF
S214401BE0F04F414CADF50D7D054601F57A700192FA
S214401BF09847214606463D4B3D489847002863D1C6
S214401C0029463C4B3A48984702A8012238493A4B65
S214401C109847054620B128460DF50D7DBDE8F08F66
S214401C204FF480610220354B9847DFF8E4B0804699
S214401C30334F01AB4FF48062414602A8D847054671
S214401C40002844D1019B1BB32E4E0446DFF8C4A0A7
S214401C50DFF8C490A30734D018F805502B0905F0D8
S214401C600F05092B03F1370098BF03F13000B0474A
S214401C70092D05F1370017D90134B0474846B84713
S214401C80019BA4B2A3422546E4D8B3F5806FD0D0DA
S214401C9040461D4B984702A81C4B98470546284689
S214401CA00DF50D7DBDE8F08F05F130000134B047ED
S214401CB04846B847019BA4B29C422546E5D2A307B6
S214401CC0CAD15046B847C7E72388338098E740468E
S214401CD00D4B984728460DF50D7DBDE8F08F00BFAB
S214401CE05C184020F1A54000E0AD4000A9A64000A9
S214401CF0441C40204DA64000D9664000818C4000E0
S214401D002D054000410440006D8D4000BD6C4000F4
S214401D1029694000CCB44000E8AD4000304900227C
S214401D20304B2DE9F041304CADF50C7D054601F5C4
S214401D307A7001929847214606462C4B2C48984785
S214401D40002841D129462B4B2948984702A8012212
S214401D502749294B9847044620B120460DF50C7D6F
S214401D60BDE8F0814FF4FA61244CA04780464FF41A
S214401D7080610220A04745460646214F01AB4FF4FE
S214401D808062314602A8B847044600BB019B6BB14F
S214401D902B46325C03F8012B581B019A80B29042C6
S214401DA0F7D3B2F5806F01D11D46E7E73046154BB5
S214401DB0984702A8144B984704460028CDD101996D
S214401DC04046124B9847C8E723883380BAE73046E8
S214401DD00C4B984720460DF50C7DBDE8F08100BFC2
S214401DE05C184020F1A54000E0AD4000A9A64000A8
S214401DF0441C40204DA64000D9664000818C4000DF
S214401E00296940006D8D4000BD6C4000E17A40007D
S214401E102DE9F047654C0222654904F5FA60654DA8
S214401E20A84700282DD00522634904F5FA60A84744
S214401E30002832D00222614904F5FA60A8470028FB
S214401E4056D002225E4904F5FA60A84750B30322F2
S214401E505C4904F5FA60A847002861D003225A4935
S214401E6004F5FA60A84700287CD00322574904F5B9
S214401E70FA60A84700287AD0002384F8FC38BDE8EA
S214401E80F087534B9847002384F8FC380028F6D058
S214401E905048514BBDE8F047184704F602004F4BF8
S214401EA09847F0E794F80268002EE5D004F57A7774
S214401EB021464B4B384698472F2E054635D004F6DC
S214401EC002064849DFF824813046C047002853D1EF
S214401ED0EB1B01E0012B06D9013B9BB2E21892F8BE
S214401EE0E8232F2AF6D12344002283F8E8232BE068
S214401EF03D4D21463A4B04F57A70984729460646AA
S214401F003A4B04F57A70984708B12B8833803849A5
S214401F10384BA1F21A409847374B38489847B2E7B3
S214401F2004F60200364B9847ADE704F60205354BFB
S214401F30284698470130B0F57A7F9DD829463846DE
S214401F404FF47A72304B98472C493048304B98477C
S214401F50002891D129494FF47A722B4BA1F57A701B
S214401F60984789E704F602002A4B98478BE704F621
S214401F700200294B984786E7224B30469847EB1B92
S214401F8003440233B3F57A7F3FF676AFDFF85890D6
S214401F9038464946C04720B93146164B17489847F9
S214401FA0D2E7B9F800302B80F6E700BF5C18402037
S214401FB00CAE40001DAB400010AE400018AE4000D6
S214401FC01CAE400020AE400024AE400028AE40008C
S214401FD0A11940002CAE40002D0540009D1A40003F
S214401FE0F1A54000E4AD4000E0AD4000A9A64000A9
S214401FF05E2040204DA6400005734000441C402013
S214402000091B400041AA4000C1AB4000F4234020D9
S2144020100D6E40001D1D4000D91B40002DE9F84FB5
S214402020344DDFF8FC80344E344FDFF8F8B0344B94
S2144020309847C047002841D032480124B047C820BE
S214402040DFF8E4A0DFF8E490A8470122514648466E
S2144020502D4B9847002834D00134C820A847E4B216
S214402060062CF2D12948B047DFF8B090234C01E067
S2144020706420A847C047E0B197F8FC38002BF7D05B
S214402080234B98474846B0472046B0473B786BB10D
S214402090DFF868A002E01AF8013F3BB10A2BFAD1FC
S2144020A05846B0471AF8013F002BF7D11948B047B9
S2144020B0DEE71948B047C0470028BDD16420A8478E
S2144020C0B7E71648B0470D48B0473B786BB1DFF8E6
S2144020D02C9002E019F8013F3BB10A2BFAD1584642
S2144020E0B04719F8013F002BF7D10A48B047052CF6
S2144020F0BAD1B7E7358940002D0540005C1840202E
S214402100A90240003CAE4000716640004CAE400024
S214402110111E4000F4AD40005CAE4000ECAD400007
S2144021208D024000F8AD40006CB6400024244020AC
S2144021302DE9F0413548364B98470D280DD00A28F2
S214402140344D14D0B5F864395A1C2B4492B283F8F7
S2144021500009A5F86429BDE8F0812E4D0023012230
S2144021602B44A5F8642983F80009BDE8F081B5F84A
S2144021706439002001222B44A5F8640985F8FC2820
S21440218083F8000995F800296AB305F510664FF004
S214402190320C034680460DE0CBB20CFB005186461F
S2144021A0661C394481F8D027627852B3052898BF18
S2144021B0312B29D8202A03F101011F463446EBD1A2
S2144021C00CFB0052312B00F1010006F1010402EB3A
S2144021D003014FF00007C0B24FF001030FD07278F2
S2144021E081F8D087D9E7134696463221002201FB74
S2144021F00E5E734483F8D027012385F8FC38BDE88B
S214402200F081302BF8D8F0E7BDE8F081008002403E
S214402210613540005C18402000B1704708B5034B5C
S21440222003481B68984700BE08BD00BF000040201A
S21440223070AE40002DE9F04184B020B1012818D09E
S21440224004B0BDE8F0811B4C01A81B4A256A1B4B15
S2144022502A401B4E134343EA0125B04701A8256296
S214402260184B98472246936ED907FCD504B0BDE874
S214402270F081104D02A8144E2B6A2C46DFF84080A1
S2144022801E43104FC04702A82E62B847A36E9A035B
S214402290FCD5236A03A80D4D23F070031D43C047A9
S2144022A003A82562B847034A936E9B03FCD504B047
S2144022B0BDE8F08100060E40FD00FFFF010037003C
S2144022C08524400095244000080037002000370051
S2144022D030B583B018B101280ED003B030BD684683
S2144022E00D4B98470D4A0E4B6846146A0D492343DA
S2144022F01362884703B030BD084D01A8064B2C6AD0
S214402300984701A8074B24F0807444F45C142C6270
S214402310984703B030BD00BF8524400000060E40FD
S21440232000003701952440002DE9F041124C15027B
S214402330124F82B0A36A41F0005105F47C55064620
S2144023401F406846DFF840800D43C047A762684696
S2144023500B4FB84701A8C047013E0A4901A801EA09
S21440236006412943A162B8472246936E9B07FCD597
S21440237002B0BDE8F08100BF00060E40FFFF00F847
S214402380952440000000FF07852440002DE9F047D3
S214402390194E84B08046DFF86890346B01A89246A8
S2144023A0164F24F07004354644EA0114C84701A885
S2144023B03463B847AB6E1907FCD52E6B02A8C847E6
S2144023C002A826F440760C4C46EA0A262E63B84706
S2144023D0A36E1A07FCD5256B03A8C84703A825F0AB
S2144023E0030548EA05052563B847034A936E1B076D
S2144023F0FCD504B0BDE8F08700060E4095244000AA
S214402400852440001F280AD81B4A0123916903FAF5
S21440241000F001420FD113691843106170473F28FE
S21440242010D820380123144AC0B2D2F8081103FA53
S21440243000F0014200D07047D2F800311843C2F88D
S21440244000017047F0B5044683B00B4D04F07F049E
S2144024500A4F68460A4EB8476846C5F80C41B0472A
S214402460D5F80C4101A844F01024B84701A8C5F897
S2144024700C41B04703B0F0BD00060E408524400036
S21440248095244000EFF31083036072B6BFF35F8F6E
S214402490704700BFBFF35F8F036883F310887047B1
S2144024A02DE9F041144B82B03A2098470023134957
S2144024B001EB83120133182BD26DF9D10025DFF8DA
S2144024C048800F4F2C460D4E01A8C04701A806EB8A
S2144024D085130135DC665C67DC67C3F88040C3F86B
S2144024E08440B847182DEFD103213A20054B984732
S2144024F002B0BDE8F08100BF0524400000800740E0
S2144025009524400045314000852440002DE9F047A1
S214402510804691F90C008AB00D460028D8F8242051
S214402520C0F28680012706468740174278D1EC7B6A
S214402530C043AB7B4FF402722404297E95F810E02A
S214402540C00F44EA83446B7CDFF8189108EB86168C
S2144025500C43A97CDFF810A144EA8E3495F813E0CA
S21440256044EA43342B7D44EAC124697D44EA0E2480
S21440257095F816E044EAC3146B7B44EA8114E97D7F
S2144025801B0644EA0E1403F0FE4344EA4104314974
S2144025901C43C84709A8DFF8D490D04795F90C30BB
S2144025A009A808EB83139C67C84708A8D0477F2331
S2144025B008A87365C8472C6807A8D047346607A89C
S2144025C0C8476C6806A8D047746606A8C847AC6873
S2144025D005A824F07F44D04705A83467C84704A818
S2144025E0D047002304A8F3667367F367C6F88030C5
S2144025F0C6F88430C84703A8D04703A8C8F80C706C
S214402600C84702A8D047012302A83365C84701A897
S214402610D04701A8C8F81C70C8470AB0BDE8F08784
S2144026200D480E4B9847FF232B730AB0BDE8F08742
S2144026300021012702E001311829F1D007FA01F301
S2144026401342F8D1CEB20648044B9847B74095F9A6
S2144026500C006CE7BCAE4000A4AE40002D05400028
S21440266094AE400019224000852440009524400046
S214402670014B43F820107047C4214020134A0023E2
S21440268010B59069012401E0182B15D004FA03F226
S214402690D9B201330242F7D08A010D4B9C5814F050
S2144026A0700F0AD1E30700D410BD0A4B084653F812
S2144026B02130BDE81040184710BD0748074B9847E3
S2144026C021460748074BBDE81040184700800740A2
S2144026D05C800740C4214020D4AE40002D05400019
S2144026E0F0AE4000510C40002DE9F043A14B93B0B2
S2144026F03E20A14C984700221421A0481646A047E9
S21440270015219E4832469E4DA047324616219B488C
S214402710A047324617219948A04732461821974885
S214402720A047324619219548A04732461A21934879
S214402730A04732461B219148A04732461C218F486D
S214402740A04732461D218D48A047022214218D48BD
S214402750A047022211218C48A0473246874831467E
S214402760A047324601218548A04732460221834889
S214402770A047324603218148A047324604217F487D
S214402780A047324605217D48A047324606217B4871
S214402790A047324607217948A04732467B48314613
S2144027A0A047324601217948A04732460221774861
S2144027B0A047324603217548A04732460421734855
S2144027C0A047324605217148A04732460F216D4842
S2144027D0A047324610216B48A04732461221674830
S2144027E0A04702220F216848A047022210216648CF
S2144027F0A04702220D216448A047022217216248C2
S214402800A04702220E216048A04732460F215B486F
S214402810A04702221D215C48A0475D485D4B984773
S2144028205D4C32463146334659480096A04705A887
S214402830A8475A4F5A4B05A85A4CBB60A04704A815
S214402840A8474FF4817304A8BB62A04703A83E6123
S214402850A8477E6203A8A0470296029B41F28732B1
S214402860934205D8029B01330293029B9342F9D9C7
S21440287007A8DFF82881A847012300264FF0E04745
S214402880C8F8003007A8A04706A83E80A8470223FD
S21440289006A8C8F80030A0473E80029641F287322C
S2144028A0029B934205D8029B01330293029B9342BC
S2144028B0F9D93A4E042710A84FF0E048A84710A888
S2144028C037604FF00309A04701230FA8A8F800304F
S2144028D0A8470FA83760A04702230EA8A8F80030E4
S2144028E0A8470EA83760A0470DA8A8F80090A847AC
S2144028F00DA83760A0470CA8A8F80070A8470CA8F9
S2144029003760A04705230BA8A8F80030A8470BA8B7
S2144029103760A04706230AA8A8F80030A8470AA8A8
S2144029203760A047072309A8A8F80030A84709A899
S2144029303760A047082308A8A8F80030A84708A88A
S214402940C6F80090A047002317494FF6FA6041F2B8
S214402950873208800293029B934205D8029B01333C
S2144029600293029B9342F9D90C4E002711A8A84720
S21440297011A81BE0052440001D2A400000120E400E
S21440298085244000000E0E4000140E4000160E40F7
S21440299000800840B5314000DD314000004008402E
S2144029A0E0D555F995244000600000703760A04798
S2144029B04FF0E0410A4B43F609520F800293029BC8
S2144029C0084902FB03F20292029BA1FB03239B0CE5
S2144029D00293029BC3F30B03736013B0BDE8F0830E
S2144029E0F049020083DE1B4330B5094D040283B034
S2144029F0084A2B6804F4706401A823F470631C43EF
S214402A00904701A8044B2C60984703B030BD00BFE8
S214402A10000C0E40852440009524400070B582B0DE
S214402A200446184B164601A80D469847164B174ABB
S214402A309C42C4F8E42017D00121A940042E11D0AE
S214402A40236FF0074CBF0B438B43B2072367636F7C
S214402A504CBF0B438B436367616001A80C4B9847A0
S214402A6002B070BD2160F8E72B1F032B01D90C2D57
S214402A70E2D1084A0121D2F81431A9400B43C2F8EA
S214402A801431DBE78524400000100E40004F4950CB
S214402A90952440000080084030B583B00446064B7D
S214402AA00D4601A89847012301A8044AAB4023617C
S214402AB0904703B030BD00BF8524400095244000B9
S214402AC030B583B00446064B0D4601A8984701230F
S214402AD001A8044AAB406361904703B030BD00BFD5
S214402AE0852440009524400030B583B00446064B0C
S214402AF00D4601A89847012301A8044AAB4023632A
S214402B00904703B030BD00BF852440009524400068
S214402B1030B583B00446064B0D4601A898470123BE
S214402B2001A8044AAB406363904703B030BD00BF82
S214402B308524400095244000C06B704770B582B035
S214402B400546134B164601A80C46984701213046C9
S214402B50104B01FA04F4104EC5F884409847002202
S214402B600E4BB04700220E4BB04700220D4E0E4B88
S214402B70B0470E4B98470E4B9847C0F30D020D4B8F
S214402B8001A8C5F88C202C62984702B070BD00BFE3
S214402B9085244000259E4000CD9E400000003040E9
S214402BA00000E03F659B40000000F03FF1A240007F
S214402BB091A340009524400030B583B00446064BB0
S214402BC00D4601A89847012301A8044AAB40636616
S214402BD0904703B030BD00BF852440009524400098
S214402BE070B582B015460446234B01A80E4698475A
S214402BF0042D3CD0E90720D40123D4F8D02003FA92
S214402C0006F1CB431A40C4F8D020D4F8D4200A4367
S214402C10C4F8D420AA071FD5D4F8C4200A43C4F861
S214402C20C420D4F8C0201340C4F8C030C4F8B01054
S214402C3001A8124B984702B070BD0121D4F8D020AD
S214402C40B1400A43CB43C4F8D020D4F8D4201A402D
S214402C50C4F8D420AA07DFD4D4F8C0200A43C4F866
S214402C60C020D4F8C4201340C4F8C430DEE70121A5
S214402C70B140C4F8B410DBE78524400095244000FA
S214402C8010B582B00446054B01A89847044A01A8EF
S214402C90044BC4F8E420984702B010BD8524400099
S214402CA00049434D9524400010B582B00446054B7C
S214402CB001A89847012201A8034B2260984702B01A
S214402CC010BD00BF852440009524400030B502F07A
S214402CD00F0283B00546054B42EA011401A8984707
S214402CE001A8034BAC60984703B030BD8524400034
S214402CF09524400070B50E4682B014460546054BF6
S214402D0001A844EA0614984701A8034BEC6198478B
S214402D1002B070BD852440009524400030B583B095
S214402D2042EA81150446044B01A8984701A8034B84
S214402D30E560984703B030BD8524400095244000A8
S214402D4030B54FF0804283B004460D46136C5B07A7
S214402D50FCD501A8034B984701A8034B65639847E9
S214402D6003B030BD85244000952440004FF080429B
S214402D70136C9B07FCD5006B704700BF70B51446BC
S214402D8005460E46DD2220461149124B9847F4B1BF
S214402D9004216FF00303601E4FF0804211FB0433A2
S214402DA004FB0161C0B2A3EB80031E44136C9B0777
S214402DB0FCD52B6B1C0A01F8013C180C1B0E01F8C5
S214402DC0024C01F8030C01F8043D8E42EED170BD72
S214402DD000AF400019224000006A7047036A426A0A
S214402DE0F0B5846A1D0AC06A170A4FEA142C0C71A3
S214402DF04FEA102E0870060C0A72000E0B7381F80C
S214402E0001E04FEA144E8E70240E160CC870120E57
S214402E1081F805C0180C81F806E01B0ECC714F7285
S214402E208E72CA724D738873CB73F0BD006C704758
S214402E302DE9F04182B016460446204F01A80D46C3
S214402E409846B847266101A81D4EB0476846B84721
S214402E5065616846B047B8F1000F0ED001E0D9076B
S214402E6010D4236C13F41B0FF9D0012002B0BDE838
S214402E70F0815A030ED4DB0704D4236C13F41B00F2
S214402E80F7D0F2E705F0C005C02D0CD0002002B008
S214402E90BDE8F0814FF4A7720A490B4B98470120D2
S214402EA002B0BDE8F081236C6FF0010203F03003FE
S214402EB0202BEBD0013A236CF8D1D6E7852440008E
S214402EC09524400000AF4000192240002DE9F04F05
S214402ED08DB00F4698464168BDF85830044641F4D8
S214402EE08059494E009303A89DF8603093469DF85C
S214402EF05CA00193B047454D03A8C4F80490A8478A
S214402F00636802A843F40069B04702A8C4F8049076
S214402F10A847BAF1000F4CD004A8B0474FF48073CE
S214402F2004A82365A84718F0030F636838D043F415
S214402F30005A06A8B04706A8C4F804A0A847B90295
S214402F4025D5C8F3080808A8B04708A8C4F81880CC
S214402F50A8470BA8B0470BA8C4F810B0A8470AA8C3
S214402F60B0470AA86761A847256CEA07FCD5284BF6
S214402F701D4231D16B0302D5019B002B39D007F09F
S214402F80C007C02F1CD000200DB0BDE8F08F09A8A8
S214402F90B047009B09A843EA0843A361A847D8E77F
S214402FA023F4005A07A8B04707A8C4F804A0A847C7
S214402FB0C5E705A8B04705A8C4F850A0A847B2E79B
S214402FC0236C4FF0FF32134902E0013A236C19D0CC
S214402FD00B40202BF9D1D6E707F03F010E480F4BA8
S214402FE0984729460E480F4B984701200DB0BDE83C
S214402FF0F08F07F03F010848084CA0470A48A04712
S2144030000120C1E70120BFE7852440009524400009
S2144030100000FB11200040001CAF40002D05400082
S21440302030AF4000510C40003CAF4000B2EB410F87
S21440303030B5054683B019D9B2FBF1F301FB132135
S21440304091B9023BC3F347030133DBB26C6801A876
S214403050074A0849224042EA0304884701A8064B2B
S2144030606C60984703B030BD013BEBE70123EDE7CA
S21440307000FFFEFF8524400095244000F0B583B055
S2144030805B0392039DF8284003F400539DF82460A8
S21440309002F4804225029DF82C709DF82040F602EE
S2144030A005F4E065090406F4006624033D4301F494
S2144030B0803104F480543543064601A82C43054D20
S2144030C01C4314430C43A84701A8034B746098471D
S2144030D003B0F0BD852440009524400010B582B072
S2144030E00446064B01A89847636D01A8044A43F47A
S2144030F080736365904702B010BD00BF85244000D2
S2144031009524400030B583B01B0114029DF818503A
S21440311003F0100304F48074090305F0010501F47C
S21440312080512B43054601A81C43044B0C4398474B
S21440313001A8034B6C65984703B030BD852440001A
S2144031409524400030B583B00446154B0D4601A883
S2144031509847002C1BDB04F01F006109114A01232D
S214403160834002EB8100C0F88030BFF34F8FBFF33F
S2144031706F8F6D011444C0F88031EDB284F800536F
S21440318042F8213001A8084B984703B030BD04F000
S2144031900F046D01054BEDB223441D76F2E700BFE8
S2144031A08524400000E100E095244000FCEC00E06F
S2144031B072B6704710B582B00446054B01A89847D2
S2144031C0044A01A8044BC4F8E421984702B010BD55
S2144031D0852440000054414D9524400030B583B0CE
S2144031E09200DB0005469DF8184002F0040203F00A
S2144031F0080304F00104224342EA030469B10129AA
S21440320008BF44F0020401A8054B984701A8054BA7
S214403210C5F82441984703B030BD44F01004F2E7A7
S214403220852440009524400010B582B0064B074CDC
S21440323001A89847064B072101A8064A5C6019601A
S214403240904702B010BD00BF85244000E0930400C4
S21440325010E000E09524400000B583B0064B01A87E
S2144032609847064A01A80649136823F001031360ED
S214403270884703B05DF804FB8524400010E000E07A
S2144032809524400010B582B00446054B01A89847E7
S214403290044A01A8044B5460984702B010BD00BFD2
S2144032A08524400010E000E09524400010B582B030
S2144032B00446054B01A89847044A01A8044B94606D
S2144032C0984702B010BD00BF8524400010E000E0E3
S2144032D095244000014B9868704700BF10E000E01E
S2144032E0114B124A03FB00F0114930B46FF07F4592
S2144032F0040E013CE4B2FF2C0CD055609560136878
S214403300DB03F6D413680844DB03FBD5013CE4B288
S214403310FF2CF2D1054B1A46586098601368DB03C1
S214403320FCD530BC704700BFE093040010E000E0DE
S214403330010000FF30B583B00C460546054B01A89A
S214403340A4019847012201A8034B2A51984703B08D
S21440335030BD00BF852440009524400030B583B082
S2144033600C460546054B01A8A4019847022201A831
S214403370034B2A51984703B030BD00BF8524400018
S2144033809524400030B583B00C460546054B01A851
S214403390A40198470422044B0DEB02002A5198479B
S2144033A003B030BD852440009524400010B582B05F
S2144033B00446054B01A89847044A01A8044BC4F8A4
S2144033C0E420984702B010BD85244000004D495483
S2144033D09524400070B50E4682B00446154601A8B6
S2144033E0044B04EB8614984701A8034BE5619847C5
S2144033F002B070BD852440009524400000EB81114A
S214403400086A704770B50E4682B00446154601A855
S214403410044B04EB8614984701A8034B6562984713
S21440342002B070BD8524400095244000F0B583B0BE
S21440343005460E469DF830709DF8344005EB8615DF
S2144034409DF82C0044EAC7049DF8281044EAC014AE
S2144034509DF8240044EA81149DF8201044EA803404
S21440346001A844EAC134064944EA034444EA824493
S214403470884701A8034B6C60984703B0F0BD00BF77
S21440348085244000952440002DE9F04F89B004463D
S214403490234E894601A893461F46BDF848A0B0472C
S2144034A0204B214D01A8C4F8E4303F02A84702A8AB
S2144034B0B047002302A8DFF8748063606362A362AB
S2144034C0A84703A8B047AC2303A82360A84704A88E
S2144034D0B047236804A843F480732360A84705A830
S2144034E0B047236805A843F400232360A84706A8EE
S2144034F047EA4B2242EA093141EA0808B04706A8A3
S214403500C4F80480A84707A8B047C4F820A007A876
S214403510A847236843F05003236009B0BDE8F08F06
S214403520852440000041535595244000C0001000BB
S21440353030B583B00D460446044B01A8984701A811
S214403540034BA560984703B030BD00BF85244000BC
S21440355095244000C16143699B07FCD5704700BF76
S2144035608069C0B2704700BF00B583B0074B01A862
S2144035709847074A01A80749D2F8003823F4804301
S214403580C2F80038884703B05DF804FB8524400045
S214403590008003409524400000B583B0064B01A848
S2144035A09847064A4FF4007101A8054BC2F80C181C
S2144035B0984703B05DF804FB852440000080034034
S2144035C095244000024BD3F80408C0F3803070477F
S2144035D00080034000B583B0074B01A89847074AD0
S2144035E001A80749D2F8003443F40073C2F8003407
S2144035F0884703B05DF804FB852440000080034004
S21440360095244000014BD3F80404704700800340E3
S214403610014BD3F8100470470080034010B582B0C9
S2144036200446054B01A89847044A01A8044BC2F833
S2144036300844984702B010BD8524400000800340EF
S2144036409524400010B582B00446054B01A8984723
S214403650044A01A8044BC2F81444984702B010BD6F
S21440366085244000008003409524400010B582B079
S2144036700446054B01A89847044A01A8044BC2F8E3
S2144036801844984702B010BD85244000008003408F
S2144036909524400000B583B0064B01A89847064ADB
S2144036A001A80649536843F400435360884703B073
S2144036B05DF804FB8524400050180E4095244000D9
S2144036C000222DE9F84F07688A758369002B00F0C1
S2144036D0A280C36A01332ED03B46FE68DFF8B0B204
S2144036E040F2FF3A144617469E4601E01F46023215
S2144036F0B35A002B00F0FC802FB903F52055ADB22D
S214403700B5F5006FF2D343EA0743C4F1FF067F2BBB
S21440371000F294803EB10E190125B3752C44DEF8B4
S2144037200C600027E3E7BE460023BEF1000F18BF3B
S2144037301E460E44B375002588460646C269924F1B
S2144037402B460BE0002B44D008EB050301215872B2
S2144037500D44F2690B2C234600F0EC80D05C5C1CD8
S2144037602028F7D0052808BFE520092C06D10B2DC8
S21440377004D808EB05032E2201355A7240F2B511E3
S214403780B847002800F09F807F28C5F10C03D9D9A0
S21440379005F10902B0F5006F42443ED3022B18D91A
S2144037A0A0F55843B3F5006F13D34FEA103EC0F36D
S2144037B0851300F03F0008EB05016EF01F0E63F026
S2144037C07F0360F07F0081F809E00321537090701A
S2144037D0BEE7002298F8163088F80920002B78D0EB
S2144037E0F269D37A88F80830D08B517F137F41EA4C
S2144037F0002143EA0123C8F80030D17D937D43EA97
S2144038000123A8F80630517E137E43EA0123A8F828
S2144038100430BDE8F88FBDE8F88F012BD9D94FEAC0
S214403820901E00F03F0008EB050302216EF03F0EAD
S21440383060F07F0083F809E0507089E704F11605D0
S214403840B3F5006F01EB050C0ED2012E38D99F0957
S21440385003F03F030E19022567F03F0763F07F032E
S214403860B7758CF8013059E7B3F5803F19D2022E70
S21440387026D9A3F55845B5F5006F21D31F0BC3F3E2
S214403880851603F03F030D1967F01F0766F07F06A5
S21440389063F07F03AF7503258CF801608CF8023027
S2144038A03CE7032E0CD903EA0B05384E9BB205F1D4
S2144038B02055A3F55C43AD09B54201D853451AD906
S2144038C0BE46002630E798F8163088F80900002BE8
S2144038D086D13F23012188F81630F26900234144FF
S2144038E08B75137B002B7FF47CAF88F8093078E724
S2144038F0BE46264618E72B4301EB0408042503F58D
S21440390080334FEA9349C3F30537C3F3851603F074
S2144039103F0369F00F0967F07F0766F07F0663F0A4
S2144039207F0388F816908CF801708CF802608CF84B
S2144039300330F3E6002108EB0503597298F8161099
S21440394000297FF44EAF002DC3D098F80930CBB194
S21440395008F1090408F1150008260CE0192D03D8D3
S214403960157B2E4200D0203300F8013F013114F879
S214403970013F002BB2D09BB22E2BA3F14105EDD1D7
S2144039801026F1E71946A9E781794000FFFF0F00AE
S2144039900000FFFF2DE9F041C37804460D4600F1D4
S2144039A03407CBB1026B0123394640781F4EB047EF
S2144039B078B9216B636AE269CB1AE07093420BD206
S2144039C0A378022B08D10A44012339466078B047D1
S2144039D002E00120BDE8F081A369023D023B9D4222
S2144039E004D26289E36A05FB023500E0002504F54F
S2144039F00D713B460022256303F8012B8B42FBD119
S214403A000026DFF828806089AA19012339468642B5
S214403A1005D36089801B18BF0120BDE8F08160781F
S214403A20C0470028F5D10136EDE700BFE9784000F1
S214403A30026B8A422CD0F8B5C37804460D4600F196
S214403A4034066BB931462A4601236078114EB0479A
S214403A5000281ABF4FF0FF35012000202563F8BD2F
S214403A600123407831460C4FB84778B9216B636ADA
S214403A70E269CB1AE0709342E4D2A378022BE1D1FC
S214403A800A44012331466078B847DBE70120F8BD99
S214403A9000207047C5784000E9784000F8B5C37804
S214403AA004465BB92378032B23D000226078334B3F
S214403AB011469847003018BF0120F8BD00F1340683
S214403AC0026B0123407831462D4DA84778B9216BCB
S214403AD0636AE269CB1AE0709342E3D2A378022B82
S214403AE0E0D10A44012331466078A847DAE701204E
S214403AF0F8BD2579012DD8D104F1340700264FF4BE
S214403B00007200211F4B3846984723693046626949
S214403B1039461F0A63F307004FEA122E62F3070680
S214403B204FF0550C67F30F201F0C6EF30F261B0E3D
S214403B304FEA124E67F31740120E276A63F31F6070
S214403B406EF317462B46013762F31F664FF0AA0EF8
S214403B500D4D3A46C4F820020C486563C4F8180276
S214403B60C4F81C62276384F832C284F833E2607873
S214403B70034DA8470023237197E700BF0D79400007
S214403B80E978400055A54000525261417272416149
S214403B90F8B54FF0FF3600230446B142C3700663C3
S214403BA00CD00D460A46012300F13401214F4078DF
S214403BB0B84710B126630420F8BD256394F8331245
S214403BC04AF6552294F8323243EA0123934201D012
S214403BD00320F8BD94F8342002F11803DBB2012B21
S214403BE003D9EB2A01D00220F8BD94F86A30462B60
S214403BF007D194F86B30412B03D194F86C30542B9A
S214403C0016D094F88630462BEDD194F88730412B69
S214403C10E9D194F88830542BE5D194F88930332B89
S214403C20E1D194F88A30322B14BF02200020F8BD30
S214403C300020F8BDC57840002DE9F843002305680C
S214403C400B607DB32C4601E03A2B03D014F8013BC1
S214403C501F2BF9D83A2B21D0BA4ED6F8045225B3AA
S214403C600D6002F0FE042B7853B90023B64A2B7041
S214403C7018466B709047C1071CD50320BDE8F883F3
S214403C806878B24B9847C707EFD4002C00F00B81FA
S214403C9010F004000CD00A20BDE8F883AB1C9C4210
S214403CA000F004810B20BDE8F8830C20BDE8F883C3
S214403CB0BDE8F8830CB14207EDD400212846A44F56
S214403CC0B847022806D004283ED0012844D90D2003
S214403CD0BDE8F883B5F81C8295F81B22B5F82C424F
S214403CE042EA082295F82B12B5F8FCE195F8FB312C
S214403CF041EA042195F81A82B5F80C9243EA0E235D
S214403D0095F80B0248EA022895F82A4295F8FA21D7
S214403D1040EA092044EA012495F80A9252EA03212F
S214403D2049EA002940F0AE80B9F1000F0FD1B8F152
S214403D30000F40F0B180002CC9D021462846B84735
S214403D40012809D90428C2D10120BDE8F883494694
S214403D502846B8470128EAD895F8402095F83F30DD
S214403D6043EA0223B3F5007FB1D195F84B3095F87E
S214403D704A2052EA032209D1B5F85A1095F859302C
S214403D8095F8582043EA012342EA032295F8447006
S214403D90EA617B1EAF70296B012B98D895F841C01D
S214403DA002FB07F71FFA8CF36B81002B8FD00CF1C8
S214403DB0FF3313EA0C0F8AD195F8463095F8454004
S214403DC044EA032423072C8181D195F8480095F8CE
S214403DD0473053EA002309D1B5F856E095F8550028
S214403DE095F8543040EA0E2043EA002395F843E025
S214403DF095F8420050EA0E203FF469AF00EB141EDF
S214403E00BE447345FFF463AFA3EB0E03DFF848816F
S214403E10B3FBFCF303F1FF3CC4453FF658AF4FF607
S214403E20F57C634558D840F6F57C634544D8023364
S214403E3008448E442962AB616862C5F82CE0002CC9
S214403E403FF445AF03EB430403F00103384401213C
S214403E5003EB5403A86203F2FF13B2EB532FFFF4B5
S214403E6036AF4FF0FF3380226B612B612A71338867
S214403E700020384A01332970EA609BB23380EB80D9
S214403E80BDE8F8832846B84701287FF665AFB9F104
S214403E90000F3FF44CAF5AE741462846B847012842
S214403EA03FF649AF58E72046BDE8F8832B78302BDD
S214403EB07FF4F8AE0460CFE6023308448E442962AD
S214403EC0AB616862C5F82CE0002C3FF400AF384484
S214403ED05B000221A862BEE7084495F85F70023393
S214403EE08E44686295F85E00AB6150EA0720C5F8DC
S214403EF02CE029627FF4EBAE002C7FF4E8AEB5F8F8
S214403F0062709B0095F8614095F8600003F2FF13DD
S214403F1044EA0724B2EB532F40EA0420A862FFF499
S214403F20D6AE95F865404FF0FF3295F86430802065
S214403F306A6143EA04232A612871012B0ED00321CB
S214403F4095E700BFEC2140209D78400079784000FE
S214403F50913B4000F0214020F4FFFF0F01312846FE
S214403F601F4B98470028EAD195F833124AF6552257
S214403F7095F83232287143EA01239342DFD1E98E25
S214403F8095F8352095F8343042EA0122154943EA3F
S214403F9002238B42D3D1B5F81A1295F8192295F818
S214403FA0183242EA0122104943EA02238B42C6D124
S214403FB095F81D22032195F82132B5F81E42B5F832
S214403FC0220242EA042495F81C2243EA002095F88F
S214403FD0203242EA042243EA00236A612B6146E724
S214403FE0313A400052526141727241612DE9F04FC0
S214403FF0067883B004460D46022E019200F09F805C
S214404000032E63D0012E03D0022003B0BDE8F08F0C
S21440401001EB510A436A026B03EB5A29914500F0C3
S2144040202D81C37800F13408002B40F0B080C346A1
S214404030414601234A466078984EB047002840F0F3
S214404040F580C4F8309015F001050AF10108CAF36E
S214404050080A00F0F2801BF80A300121019A03F0AA
S2144040600F0343EA02130BF80A30666A226B06EB2C
S2144040705826E170B24200F00D810123594660781F
S214404080DFF81C92C847002840F0CE80216B636A58
S214404090E269CB1AE070934203D2A378022B00F079
S2144040A0F3800123324659466078DFF8F091C847DE
S2144040B0002840F0BB80C8F3080326639B44002DCD
S2144040C000F0CB80019BC3F30717CEE0436A026B38
S2144040D003EBD119914500F0D480C37800F1340841
S2144040E0002B40F087804646414601234A4660788A
S2144040F0DFF8A881C047002840F09880C4F8309088
S214404100AD00019B0022012105F4FE7523F07047A7
S214404110104673195B881B0403F070431F433B0A29
S21440412067F3070263F30F223B0C3F0E63F317421D
S21440413067F31F627251E17003B0BDE8F08F466AC4
S214404140026B06EB1126964200F09580C37800F18C
S2144041503408002B36D1C1464146012332466078AA
S214404160DFF83881C047002860D126636D00019E85
S2144041700123002005F4FF75C6F3072109EB05026D
S21440418009F805605170E37003B0BDE8F08F334620
S21440419040784146424FB847C346002844D1216B39
S2144041A0636AE269CB1AE0709342BFF440AFA378EB
S2144041B0022B7FF43CAF33460A4460784146384E83
S2144041C0B04735E7012340784146DFF8D4A0D047D2
S2144041D0C14648BB216B636AE269CB1AE0709342E2
S2144041E0B9D2A378022BB6D10A440123414660785F
S2144041F0D047B1E7012340784146DFF8A4A0D04736
S214404200464688B9216B636AE269CB1AE0709342EE
S214404210BFF469AFA378022B7FF465AF0A4401234D
S21440422041466078D0475FE70120EEE64FF0FF3327
S2144042300120236303B0BDE8F08F9DF804300BF8EF
S2144042400A300123666A226B06EB5826E370B242B8
S2144042507FF413AFC8F308039B449BF80030019AE1
S21440426023F00F07C2F30322174301238BF8007095
S2144042700020E370C9E600F1340977E700F1340B1B
S214404280E1E600F134063BE70A44012359466078EC
S214404290C84706E7C8F308039B4413E7C5784000C1
S2144042A0E978400001290CD92DE9F04F056883B024
S2144042B00C468246AB69994205D3022003B0BDE85E
S2144042C0F08F022070477AB1012AF6D99342F4D98A
S2144042D0114628464FF0FF329A4B98470028EDD1BA
S2144042E0DAF80060B36900E02E46DFF860B2A34219
S2144042F0E3D93378022B00936DD0032B00F08A80ED
S214404300012BDAD104EB5409736A326B03EB59285C
S214404310904512D0F378002B40F0BC8006F1340371
S21440432001930199012342467078D847002840F00F
S21440433093804246736AC6F8308009F10100C9F39B
S214404340080103EB50283144009091F834309045F2
S21440435001930ED0F37806F13409002B40F0D98053
S2144043604946012342467078D847002874D1C6F89B
S2144043703080009BC3F30807019B3E4496F8347098
S21440438043EA0727E3074CBF3F09C7F30B07002F55
S21440439000F0BA80012F90D0012C8ED9AB69A34291
S2144043A08BD9214600222846664B9847002885D15F
S2144043B0AA696B69911E8B4205D22979013341F077
S2144043C001016B612971BA4240F29E80DAF80060C2
S2144043D03C46B3698BE7776A326B07EB1429914505
S2144043E000F08D80F37806F13408002B6ED101235F
S2144043F04A4641467078D84770BBC6F8309063004E
S21440440003F4FF7308EB030218F80370537847EA87
S2144044100327BCE7776A326B07EBD41991456BD01C
S214404420F37806F13408F3B901234A4641467078DA
S214404430D84788B9C6F83090A30003F4FE7308EB5B
S214404440030218F803705188537843EA012347EA79
S214404450032727F070479AE74FF0FF330120336376
S21440446003B0BDE8F08F012370784146364FB84719
S214404470002847D1316B736AF269CB1AF0709342C9
S214404480D2D2B378022BCFD10A440123414670786A
S214404490B847C9E706F1340370782B4F19460193A5
S2144044A0009BB847002831D1316B736AF269CB1A4A
S2144044B0F0709342BFF435AFB378022B7FF431AF40
S2144044C00A44009B01997078B8472AE70123707820
S2144044D041461D4FB847A8B9316B736AF269CB1A8B
S2144044E0F070934283D2B378022B80D10A440123E2
S2144044F041467078B8477AE706F134089CE706F1FB
S21440450034087CE70120D9E60020D7E6009F3846ED
S214404510D4E60123707849460B4FB8470028F1D1BE
S214404520316B736AF269CB1AF0709342BFF418AFDE
S214404530B378022B7FF414AF0A44012349467078BF
S214404540B8470DE7ED3F4000E9784000C5784000A9
S214404550012910D9836999420DD22DE9F047037895
S21440456004460D46022B48D0032B5FD0012B04D0C7
S2144045700120BDE8F0870120704701EB5108416AF1
S214404580026B01EB5827974210D0C17800F13406F1
S214404590002940F0B280314601233A466078734E97
S2144045A0B04700283DD13A46616A2763C8F30803FE
S2144045B008F1010801EB58272344974293F83490BA
S2144045C00DD0E37804F13406002B40F0B580314638
S2144045D001233A466078654EB04710BB2763C8F360
S2144045E00808EB07444494F8340049EA00204CBFDE
S2144045F00009C0F30B00BDE8F087476A026B07EB83
S2144046001127974200F09580C37800F13406002BBE
S2144046103FD1B046314601233A466078534EB047C4
S21440462050B34FF0FF302063BDE8F087476A026B17
S21440463007EBD117974279D0C37800F13406002BA8
S2144046403FD1B046314601233A466078474EB047A0
S2144046500028E6D12763A90001F4FE7108EB0102A9
S21440466018F801005378518843EA012340EA0320B2
S21440467020F07040BDE8F0872763690001F4FF71C1
S21440468008EB010318F801005B7840EA0320BDE818
S214404690F087012340783146DFF8D490C847B046CB
S2144046A038BB216B636AE269CB1AE0709342B0D2A2
S2144046B0A378022BADD10A44012331466078C8471F
S2144046C0A8E7012340783146DFF8A490C847B046B3
S2144046D078B9216B636AE269CB1AE0709342B0D234
S2144046E0A378022BADD10A44012331466078C847EF
S2144046F0A8E74FF0FF30BDE8F08740783146DFF856
S2144047007090C8470028F4D1216B636AE269CB1ADF
S214404710E0709342BFF43FAFA378022B7FF43BAFE9
S2144047200A44012331466078C84734E700F134082C
S21440473091E700F13408A0E7012360783146DFF8BE
S21440474030A0D0470028D4D1216B636AE269CB1AE7
S214404750E0709342BFF43BAFA378022B7FF437AFB1
S2144047600A44012331466078D04730E7C578400098
S214404770E97840002DE9F04F834685B08A46D0F868
S2144047800080002940F0B380D8F8107017B3D8F8EE
S21440479018309F4228BF0127D8F81430FBB1D8F80C
S2144047A018303C46CDF80CA001349C421CD3012F57
S2144047B015D9DBF800500224AB69A34218D92B78F0
S2144047C0022B019319D0032B42D0012B72D0012328
S2144047D01C460EE0D8F814300127002BDFD1002409
S2144047E0204605B0BDE8F08F012CDBF80050E3D83A
S2144047F00124204605B0BDE8F08F6E6A2A6B06EBB2
S214404800142A924500F02381EB7805F13409002BF9
S21440481040F0DF800123524649466878AE4EB047A6
S214404820002840D1C5F830A0630003F4FF7309EBBD
S214404830030219F80330527843EA0223002B00F0B3
S2144048406F81012BC4D0A742C9D0D8F81830ABE747
S2144048506E6A2A6B06EBD41A924500F0FB80EB7822
S21440486005F13409B3B10123687849469B4EB047F9
S214404870002840F0E680296B6B6AEA69CB1AE8703C
S214404880934207D2AB78022B04D10A44012349460F
S2144048906878B04701235246494668788E4EB047FE
S2144048A0002800F084804FF0FF3420462C6305B08B
S2144048B0BDE8F08F04EB540A6B6A2A6B03EB5A2967
S2144048C0914500F0CE80EB78002B40F09B8005F1C0
S2144048D034030293029901234A4668787E4EB047D5
S2144048E0002800F0BA804FF0FF332B6370E7404655
S2144048F07B4DA847012804467FF67AAF013000F08A
S214404900A080D8F818309C42FFF473AFD8F8142033
S214404910002A3FF464AF0AF10104DBF80000A3422A
S21440492098BF02242146A847012800F0C680411CB3
S21440493000F0C380002840F0C280002C00F0EC80DD
S214404940012C7FF655AFD8F81830A3427FF650AF0B
S2144049504FF0FF3221464046624DA84778B9BAF13B
S214404960000F0CD0BAF1010F7FF642AFD8F81830DE
S2144049709A45BFF43DAF514622464046A8470028D8
S2144049805CD1D8F81830D8F81420023BC8F810404C
S2144049909A4202D8013AC8F8142098F804302046C3
S2144049A043F0010388F8043005B0BDE8F08FC5F841
S2144049B030A0A30003F4FE7309EB030119F803309B
S2144049C048884A7842EA002243EA022323F07043AA
S2144049D034E7012368784946404EB047002830D136
S2144049E0296B6B6AEA69CB1AE8709342BFF412AF40
S2144049F0AB78022B7FF40EAF0A4401234946687811
S214404A00B04707E705F134036878344E19460293F9
S214404A10019BB04700285CD1296B6B6AEA69CB1AC8
S214404A20E8709342BFF456AFAB78022B7FF452AF98
S214404A300A44019B02996878B0474BE701287FF407
S214404A40D7AE4FF0FF34204605B0BDE8F08F05F1F5
S214404A503409E9E605F13409ABE74A466B6AC5F81E
S214404A603090CAF308010AF1010A03EB5A2329449D
S214404A701846019391F83430904202930FD0EB7869
S214404A8005F13409002B2FD149460123019A687855
S214404A90114EB04700287FF406AF019B2B63CAF344
S214404AA0080A029A554495F8343042EA0323E2074E
S214404AB04CBF1B09C3F30B03C0E6044699E6D8F87F
S214404AC01070D8F81830012F28D99F4228BF574673
S214404AD067E64FF0FF337BE6C5784000E978400054
S214404AE051454000ED3F40000123687849460E4E50
S214404AF0B0470028A5D1296B6B6AEA69CB1AE870E3
S214404B009342C1D2AB78022BBED10A440123494618
S214404B106878054EB047B7E7D8F81830574640E6AD
S214404B20DDF80CA00FE700BFE97840002DE9F04122
S214404B30046982B005462034B4F5001F0FD283695D
S214404B40002B33D0C4F3080206683ABB0F46013345
S214404B504169836171BB3389B3EB541F1ED8002370
S214404B600420AB6102B0BDE8F081012841D0B0F12D
S214404B70FF3F40D00146224B3046984700283AD166
S214404B80B369019A023BA8F10201C5F81480994224
S214404B9033D27389F06A01FB0303AB6134360020DD
S214404BA02C611644EE6102B0BDE8F081042002B0EC
S214404BB0BDE8F0817389013B13EA5423EED13046B9
S214404BC0104B0192984701288046019A11D9B0F1BE
S214404BD0FF3F10D0B3699842D4D3002FBFD0696945
S214404BE02846094B0192984780460028BDD10720A9
S214404BF0B8E70220B6E70120B4E70023CDE700BFC0
S214404C009539400051454000754740002DE9F04F2A
S214404C10D0F8188085B004460568B8F1000F4CD02F
S214404C20FF238B46DFF834A31E4601932A6B42458A
S214404C3016D0EB7805F13409002B6BD14946012399
S214404C4042466878C34FB84740B14FF0FF33012023
S214404C502B630023A36105B0BDE8F08FC5F8308014
S214404C60E269117849B3D37AE52903F03F03A3718B
S214404C700AD02E2908D023F02000A0F10800B0FA70
S214404C8080F0400958455CD02369FF2620335345C1
S214404C9013D8D4F81880B8F1000F0ED0C3F308012B
S214404CA0226800295ED108F101086169C4F81880BD
S214404CB029B91189B1EB531F22D80420C9E750897E
S214404CC0013810EA53291BD11046DFF8948203932B
S214404CD00292C047012850D9431C4CD0029A916991
S214404CE08842EAD20239A0F1020E60618E45039BEB
S214404CF045D2B2F80A80D16A0EFB0818C4F818806C
S214404D0034322361E261B8F1000F8FD1002005B044
S214404D10BDE8F08F0123687849468F4FB84750BBAF
S214404D20296B6B6AEA69CB1AE870934286D2AB78F5
S214404D30022B83D10A44012349466878864FB847F8
S214404D407CE70F2B40F08181480623690FD501F0A0
S214404D50BF06517BE36208460191517B814215D0E4
S214404D60FF2693E7343223611144E1615EE7B142A6
S214404D70F6D10198F1E701206BE7022069E734326B
S214404D80C4F8189023610020E261C0E792F81BE067
S214404D90907E50EA0E20E3D1107892F802C020F0C0
S214404DA0400092F801E001384EEA0C2E00EB400C31
S214404DB000EB8C00FF28D3D8EF6802974700039794
S214404DC0029F27F810E092F804C092F8038048EA61
S214404DD00C28BEF1000F00F0C58000F1010EBEF5B4
S214404DE0807FBDD027F81E804FEA4E0E92F8069080
S214404DF092F805C04CEA092CB8F1000F00F0BC80D0
S214404E00FE28ADD0BE44AEF802C092F8089092F8A4
S214404E10078048EA0928BCF1000F00F0B780FD285B
S214404E209ED0AEF8048092F80A9092F809C04CEAF8
S214404E30092CB8F1000F00F0B380FC2800F05A812E
S214404E40AEF806C092F80F9092F80E8048EA09280D
S214404E50BCF1000F00F0AE80FB2800F04B81AEF8AE
S214404E60088092F8119092F810C04CEA092CB8F1DC
S214404E70000F00F0A980FA2800F03C81AEF80AC086
S214404E8092F8139092F8128048EA0928BCF1000F75
S214404E9000F0A480F92800F02D81AEF80C8092F83E
S214404EA0159092F814C04CEA092CB8F1000F00F0A7
S214404EB09F80F82800F01E81AEF80EC092F817903A
S214404EC092F8168048EA0928BCF1000F00F0998055
S214404ED0F72800F00F81AEF8108092F8199092F8FB
S214404EE018C04CEA092CB8F1000F00F09380F62861
S214404EF000F00081AEF812C092F81D9092F81C8027
S214404F0048EA0928BCF1000F00F08D80F52800F033
S214404F10F180AEF8148092F81F9092F81EC04CEACA
S214404F20092CB8F1000F00F08880F42800F0E280E9
S214404F30AEF816C01278520640F18380BCF1000FDE
S214404F407FD0F32800F0D68003983A4602440020EB
S214404F50508376E0C5784000E9784000FFFF1F00A8
S214404F60514540004FF6FF7080457FF4F9AE90798A
S214404F7092F805C04CEA002C4FF6FF70844540F08E
S214404F80B980107A92F8078048EA00284FF6FF70FA
S214404F90804540F0AF80907A92F809C04CEA002CE9
S214404FA04FF6FF70844540F0A580D07B92F80E8087
S214404FB048EA00284FF6FF70804540F09B80507CC2
S214404FC092F810C04CEA002C4FF6FF70844540F033
S214404FD09180D07C92F8128048EA00284FF6FF7005
S214404FE0804540F08780507D92F814C04CEA002CF3
S214404FF04FF6FF7084457DD1D07D92F8168048EA02
S21440500000284FF6FF70804574D1507E92F818C045
S2144050104CEA002C4FF6FF7084456BD1507F92F8D7
S2144050201C8048EA00284FF6FF70804562D192F80F
S2144050301F9092F81EC04CEA092C4FF6FF7294451A
S21440504058D1013E0191F6B220E6002E4DD111789E
S21440505092F801E0CB019678D57843EA510310796F
S21440506092F805C003EB0E0192F806E0C1F3460342
S21440507043EAC11356FA83F1D679C1F3460343EAAD
S214405080C11355FA83F1157AC1F3460343EAC113B7
S21440509050FA83F1507AC1F3460343EAC113917A3A
S2144050A05CFA83F2C2F3460343EAC2135EFA83F223
S2144050B0C2F3460343EAC21356FA83F2C2F34603E8
S2144050C043EAC21355FA83F2C2F3460343EAC213D5
S2144050D050FA83F2C2F3460343EAC213019A51FAE6
S2144050E083F3DBB293423FF411AE4FF0FF33002020
S2144050F0E362B0E5019133E6B1F5001F01D302202B
S21440510070472DE9F04F0C4685B0E10603D00220EB
S21440511005B0BDE8F08F856807460461D0F800B05A
S21440512045B99BF80030022B70D9DBF82830002BAD
S2144051306CD01D46BBF80AA04FEA4A2A5445C0F038
S2144051403F81A4EB0A045E460197012DDFD9B3697F
S214405150AB42DCD93378022B70D0032B00F08F8023
S214405160012BD4D105EB5509716A326B01EB5928F6
S214405170904513D0F178002940F0BF8006F1340303
S214405180029302990123424670788F4FB847002811
S21440519040F09C804246716AC6F83080C9F30803E6
S2144051A009F10109334401EB592893F8343090450E
S2144051B0039310D0F378002B40F0E68006F13403DA
S2144051C0029302990123424670787F4FB8470028E1
S2144051D07CD1C6F83080C9F30809039A4E4496F845
S2144051E0343042EA0323EA074CBF1D09C3F30B05DC
S2144051F0012D8CD9DBF81830AB4288D9A24500F295
S214405200B480019BA4EB0A041E689EE7BBF80830F6
S214405210B3EB541F7FF67BAFDBF82820BA617D6185
S214405220002A3FF474AF0BF13403C4F3080102EBD9
S214405230542200200B44BA61FB6169E7736A326B03
S21440524003EB1528904500F08D80F37806F134097D
S214405250002B6CD101234246494670785A4FB847D6
S214405260002833D1C6F830806D0005F4FF7509EB91
S214405270050319F805505B7845EA0325B8E7736AD5
S214405280326B03EBD518904569D0F37806F13409B4
S214405290ABB10123707849464C4FB84700285CD1E3
S2144052A0316B736AF269CB1AF070934207D2B378C7
S2144052B0022B04D10A44012349467078B84701239B
S2144052C0424649467078404FB84720B14FF0FF33CA
S2144052D0012033631CE7C6F83080AD0005F4FE7548
S2144052E009EB050219F805505188537843EA012323
S2144052F045EA032525F070457AE706F134017078D3
S214405300324F0291B84740BB316B736AF269CB1A91
S214405310F0709342BFF435AFB378022B7FF431AFD1
S2144053200A44012302997078284FB84729E7012399
S21440533070784946254FB84778B9316B736AF26939
S214405340CB1AF070934285D2B378022B82D10A44AE
S214405350012349467078B8477CE70120D8E606F135
S2144053603409BAE706F134097EE7019F023BA91EDD
S214405370994207D2BBF80A20DBF82C3001FB0232F8
S214405380BA614CE70022FBE706F1340370780F4F12
S214405390194602930123B8470028DED1316B736A61
S2144053A0F269CB1AF0709342BFF40BAFB378022B7E
S2144053B07FF407AF0A44012302997078B84700E7A4
S2144053C0DBF81830D2E700BFC5784000E9784000E7
S2144053D02DE9F04F002187B0AF4B0446056898474B
S2144053E08146F0B9FF23A769DFF8B4B21A464FF0FA
S2144053F0FF33019016469246E3622A6BBA4215D0B6
S214405400EB7805F13408002B40F0FF80414601233D
S2144054103A466878D84740B14FF0FF334FF001091D
S2144054202B63484607B0BDE8F08F2F63E7693B78AB
S214405430002B00F00481F97AE52B01F03F02A271BF
S21440544004D009074AD50F2A00F0FC804FF0FF33FE
S214405450FF26E36223692033B3F5001F11D2A76904
S214405460002F00F0EC80C3F308082268B8F1000F64
S2144054702FD101376169A76159B91189B1EB531F23
S21440548027D84FF0040900234846A36107B0BDE87B
S214405490F08F5089013810EA53201AD110467F4FBA
S2144054A003930292B847012840F23081431C00F033
S2144054B02681029A91698842E3D20239871E60614A
S2144054C08F42039B80F025815089D16A07FB0017E5
S2144054D0A761343223614244E2618EE70F2A00F02E
S2144054E0B180002E47D13B787E78DA01B878F978DB
S2144054F042EA53039A193E79C2F3460343EAC2137B
S21440550050FA83F37879C3F3460242EAC31351FA5A
S21440551083F2B979C2F3460343EAC21356FA83F3D9
S214405520FE79C3F3460242EAC31350FA83F2787A0E
S214405530C2F3460343EAC2133A7A51FA83F3C3F3FB
S214405540460141EAC31356FA83F1C1F3460343EAE0
S214405550C113B97A52FA83F3C3F3460242EAC3133D
S21440556050FA83F2C2F3460343EAC21351FA83F376
S214405570DBB29A4546D094F82B30DA073FF566AF53
S21440558094F820203B789A427FF460AF7A7894F87B
S21440559021309A427FF45AAFBA7894F822309A4231
S2144055A07FF454AFFA7894F823309A427FF44EAFA3
S2144055B03A7994F824309A427FF448AF7A7994F84E
S2144055C025309A427FF442AFBA7994F826309A4210
S2144055D07FF43CAFFA7994F827309A427FF436AF9E
S2144055E03A7A94F828309A427FF430AF7A7A94F830
S2144055F029309A427FF42AAFBA7A94F82A309A42EF
S2144056007FF424AFDDF804900BE701236878414629
S214405610DFF89090C847002871D1296B6B6AEA6919
S214405620CB1AE8709342BFF4F1AEAB78022B7FF40E
S214405630EDAE0A44012341466878C847E6E64FF097
S2144056400409EEE694F82B2052063FF503AF5806C1
S21440565058D5226903F0BF0397F80DA0E26297F889
S2144056600D80D04550D1F97EBA7E52EA01224BD108
S21440567039784FF0010EEA6801F03F010494029237
S21440568070460139DFF8209003953C4601EB410215
S214405690059301EB820A1CE0F9504000514540005A
S2144056A0C5784000E978400054AF4000BAF1FF0F9B
S2144056B030461FD8214B9847029B054633F81A00C0
S2144056C0BA461E4B98478542304613D11C4B9945E7
S2144056D021D019F8011B0AF1010704EB010E665CA4
S2144056E09EF8011046EA01260028DFD14FF6FF73E8
S2144056F09E42EBD0039DC246049CFF26AAE64FF08E
S21440570001098EE69E42AAD0FF26A3E64FF0020984
S21440571087E64746DCE627468646039D3A78059B5D
S2144057205106049C04D518B1029A32F81A201AB9C8
S214405730013BC246DEB28DE6C246E5E7A9794000A7
S21440574061AF40002DE9F04F0B7885B002680D46FA
S2144057502F2B8346009203D115F8013F2F2BFBD009
S2144057605C2BF9D00021CBF808102A781F2A40F28B
S214405770DE81009B1746DFF87493DFF874A33A0681
S214405780DE684FF0000140F2FF7E05F101031FD4B2
S2144057901D460C46B8B21F286DD92F286BD05C2802
S2144057A000F058817F280AD8BFB2222F1ED02A2365
S2144057B0C94A9F421AD012F8013F002BF9D1FE2C5D
S2144057C014D826F81400611C2F786B1C3A06DFD5D7
S2144057D007F0E003C02B00F0F58007F0F003E02B65
S2144057E000F00B8107F0F803F02B03D0062005B03D
S2144057F0BDE8F08F07F0070703206B7803F0C00280
S214405800802AF3D1AC7803F03F03EA1C04F0C00CC6
S21440581043EA8717BCF1800FE8D104F03F04022822
S21440582044EA871700F0DB80EB78043503F0C002CB
S214405830802ADBD103F03F0343EA8717A7F5584396
S2144058407345D3D9A7F18003A44A9342CED8B7F57F
S214405850803FC0F09B81A7F58033C7F309074C1CF7
S21440586009EA831347EA0A071F43B8B23B0C1F28CE
S21440587026F8113091D81F2800F2EC800427002C1F
S21440588000F0E2806FF00043234436F8131006EB36
S21440589043032E2901D0202908D1013C00F0D480B2
S2144058A033F8022D202AF8D02E2AF6D04FF00008E2
S2144058B006EB440326F814803188202940F06281A4
S2144058C0314631F8022F08F10108202AF9D047F076
